{
  "contractName": "EMR",
  "abi": [
    {
      "inputs": [],
      "stateMutability": "nonpayable",
      "type": "constructor"
    },
    {
      "inputs": [
        {
          "internalType": "address",
          "name": "",
          "type": "address"
        }
      ],
      "name": "Hospital_Data",
      "outputs": [
        {
          "internalType": "uint256",
          "name": "key",
          "type": "uint256"
        },
        {
          "internalType": "string",
          "name": "name",
          "type": "string"
        },
        {
          "internalType": "string",
          "name": "addr",
          "type": "string"
        },
        {
          "internalType": "address",
          "name": "manager",
          "type": "address"
        }
      ],
      "stateMutability": "view",
      "type": "function",
      "constant": true
    },
    {
      "inputs": [
        {
          "internalType": "address",
          "name": "",
          "type": "address"
        }
      ],
      "name": "Hospital_patients",
      "outputs": [
        {
          "internalType": "address",
          "name": "",
          "type": "address"
        }
      ],
      "stateMutability": "view",
      "type": "function",
      "constant": true
    },
    {
      "inputs": [
        {
          "internalType": "address",
          "name": "",
          "type": "address"
        }
      ],
      "name": "Hospitals",
      "outputs": [
        {
          "internalType": "bool",
          "name": "",
          "type": "bool"
        }
      ],
      "stateMutability": "view",
      "type": "function",
      "constant": true
    },
    {
      "inputs": [
        {
          "internalType": "uint256",
          "name": "",
          "type": "uint256"
        }
      ],
      "name": "HospitalsAddr",
      "outputs": [
        {
          "internalType": "address",
          "name": "",
          "type": "address"
        }
      ],
      "stateMutability": "view",
      "type": "function",
      "constant": true
    },
    {
      "inputs": [],
      "name": "Owner",
      "outputs": [
        {
          "internalType": "address",
          "name": "",
          "type": "address"
        }
      ],
      "stateMutability": "view",
      "type": "function",
      "constant": true
    },
    {
      "inputs": [
        {
          "internalType": "address",
          "name": "",
          "type": "address"
        }
      ],
      "name": "Patients",
      "outputs": [
        {
          "internalType": "bool",
          "name": "",
          "type": "bool"
        }
      ],
      "stateMutability": "view",
      "type": "function",
      "constant": true
    },
    {
      "inputs": [
        {
          "internalType": "address",
          "name": "",
          "type": "address"
        },
        {
          "internalType": "uint256",
          "name": "",
          "type": "uint256"
        }
      ],
      "name": "PatientsAddr",
      "outputs": [
        {
          "internalType": "address",
          "name": "",
          "type": "address"
        }
      ],
      "stateMutability": "view",
      "type": "function",
      "constant": true
    },
    {
      "inputs": [
        {
          "internalType": "address",
          "name": "",
          "type": "address"
        }
      ],
      "name": "Patients_EHR",
      "outputs": [
        {
          "internalType": "string",
          "name": "patient_name",
          "type": "string"
        },
        {
          "internalType": "string",
          "name": "blood_grp",
          "type": "string"
        },
        {
          "internalType": "bool",
          "name": "diabetic",
          "type": "bool"
        },
        {
          "internalType": "uint256",
          "name": "age",
          "type": "uint256"
        },
        {
          "internalType": "address payable",
          "name": "patient_address",
          "type": "address"
        }
      ],
      "stateMutability": "view",
      "type": "function",
      "constant": true
    },
    {
      "inputs": [
        {
          "internalType": "address",
          "name": "Hospital",
          "type": "address"
        },
        {
          "internalType": "address",
          "name": "manager",
          "type": "address"
        },
        {
          "internalType": "string",
          "name": "name",
          "type": "string"
        },
        {
          "internalType": "string",
          "name": "addr",
          "type": "string"
        }
      ],
      "name": "Add_Hospitals",
      "outputs": [],
      "stateMutability": "nonpayable",
      "type": "function"
    },
    {
      "inputs": [],
      "name": "getHospitalsAddress",
      "outputs": [
        {
          "internalType": "address[]",
          "name": "",
          "type": "address[]"
        }
      ],
      "stateMutability": "view",
      "type": "function",
      "constant": true
    },
    {
      "inputs": [
        {
          "internalType": "address",
          "name": "Hospital",
          "type": "address"
        }
      ],
      "name": "getHospitalData",
      "outputs": [
        {
          "internalType": "uint256",
          "name": "",
          "type": "uint256"
        },
        {
          "internalType": "string",
          "name": "",
          "type": "string"
        },
        {
          "internalType": "string",
          "name": "",
          "type": "string"
        },
        {
          "internalType": "address",
          "name": "",
          "type": "address"
        }
      ],
      "stateMutability": "view",
      "type": "function",
      "constant": true
    },
    {
      "inputs": [
        {
          "internalType": "address",
          "name": "patient",
          "type": "address"
        }
      ],
      "name": "Add_Patient",
      "outputs": [],
      "stateMutability": "nonpayable",
      "type": "function"
    },
    {
      "inputs": [
        {
          "internalType": "address",
          "name": "Hospital",
          "type": "address"
        }
      ],
      "name": "getPatientsAddress",
      "outputs": [
        {
          "internalType": "address[]",
          "name": "",
          "type": "address[]"
        }
      ],
      "stateMutability": "view",
      "type": "function",
      "constant": true
    },
    {
      "inputs": [
        {
          "internalType": "string",
          "name": "patient_name",
          "type": "string"
        },
        {
          "internalType": "string",
          "name": "past_surgeries",
          "type": "string"
        },
        {
          "internalType": "string",
          "name": "blood_grp",
          "type": "string"
        },
        {
          "internalType": "string",
          "name": "allergies",
          "type": "string"
        },
        {
          "internalType": "bool",
          "name": "diabetic",
          "type": "bool"
        },
        {
          "internalType": "uint256",
          "name": "age",
          "type": "uint256"
        },
        {
          "internalType": "address payable",
          "name": "patient_address",
          "type": "address"
        }
      ],
      "name": "Add_Patient_EHR",
      "outputs": [],
      "stateMutability": "nonpayable",
      "type": "function"
    },
    {
      "inputs": [
        {
          "internalType": "address",
          "name": "patient",
          "type": "address"
        },
        {
          "internalType": "string",
          "name": "patient_name",
          "type": "string"
        },
        {
          "internalType": "string",
          "name": "past_surgeries",
          "type": "string"
        },
        {
          "internalType": "string",
          "name": "blood_grp",
          "type": "string"
        },
        {
          "internalType": "bool",
          "name": "diabetic",
          "type": "bool"
        },
        {
          "internalType": "uint256",
          "name": "age",
          "type": "uint256"
        },
        {
          "internalType": "address payable",
          "name": "patient_address",
          "type": "address"
        }
      ],
      "name": "updateEHR",
      "outputs": [],
      "stateMutability": "nonpayable",
      "type": "function"
    },
    {
      "inputs": [
        {
          "internalType": "address",
          "name": "patient",
          "type": "address"
        }
      ],
      "name": "getEHRsummary",
      "outputs": [
        {
          "internalType": "string",
          "name": "",
          "type": "string"
        },
        {
          "internalType": "string",
          "name": "",
          "type": "string"
        },
        {
          "internalType": "string",
          "name": "",
          "type": "string"
        },
        {
          "internalType": "bool",
          "name": "",
          "type": "bool"
        },
        {
          "internalType": "uint256",
          "name": "",
          "type": "uint256"
        },
        {
          "internalType": "address",
          "name": "",
          "type": "address"
        }
      ],
      "stateMutability": "view",
      "type": "function",
      "constant": true
    },
    {
      "inputs": [
        {
          "internalType": "address",
          "name": "To",
          "type": "address"
        },
        {
          "internalType": "address",
          "name": "From",
          "type": "address"
        },
        {
          "internalType": "address payable",
          "name": "patient_address",
          "type": "address"
        }
      ],
      "name": "Emergency_EHR_Transfer",
      "outputs": [],
      "stateMutability": "nonpayable",
      "type": "function"
    },
    {
      "inputs": [
        {
          "internalType": "address",
          "name": "To",
          "type": "address"
        },
        {
          "internalType": "address",
          "name": "From",
          "type": "address"
        },
        {
          "internalType": "address payable",
          "name": "patient_address",
          "type": "address"
        }
      ],
      "name": "EHR_Transfer",
      "outputs": [],
      "stateMutability": "nonpayable",
      "type": "function"
    }
  ],
  "bytecode": "0x60806040526000600155600060025534801561001a57600080fd5b5073b9e948de64bb6fe423ed878a1f33260f0e0c21f96000806101000a81548173ffffffffffffffffffffffffffffffffffffffff021916908373ffffffffffffffffffffffffffffffffffffffff1602179055506128e08061007e6000396000f3fe608060405234801561001057600080fd5b50600436106101165760003560e01c8063aba4407b116100a2578063c8329e3a11610071578063c8329e3a1461030b578063cf27f2ca1461033b578063d40855eb1461036b578063e8300b1d1461039f578063fcd3889d146103d257610116565b8063aba4407b14610271578063ae7254001461028d578063afca7e15146102bd578063b4a99a4e146102ed57610116565b80632c542437116100e95780632c542437146101b65780633125d6eb146101eb578063a549a4ed14610207578063a83b582f14610237578063a93abcd31461025357610116565b80630fdbad641461011b578063182be0f61461014e5780631c5f8c581461016a5780631db7d8371461019a575b600080fd5b61013560048036038101906101309190611d0d565b6103ee565b6040516101459493929190611dfb565b60405180910390f35b61016860048036038101906101639190611f55565b61054e565b005b610184600480360381019061017f9190611d0d565b6107be565b6040516101919190612137565b60405180910390f35b6101b460048036038101906101af9190612159565b61088b565b005b6101d060048036038101906101cb9190611d0d565b610a3f565b6040516101e2969594939291906121bb565b60405180910390f35b61020560048036038101906102009190611d0d565b610dfb565b005b610221600480360381019061021c9190611d0d565b610fe2565b60405161022e9190612231565b60405180910390f35b610251600480360381019061024c9190612159565b611002565b005b61025b6111bc565b6040516102689190612137565b60405180910390f35b61028b6004803603810190610286919061224c565b6112b6565b005b6102a760048036038101906102a29190611d0d565b611604565b6040516102b4919061234f565b60405180910390f35b6102d760048036038101906102d29190611d0d565b611637565b6040516102e49190612231565b60405180910390f35b6102f5611657565b604051610302919061234f565b60405180910390f35b6103256004803603810190610320919061236a565b61167b565b604051610332919061234f565b60405180910390f35b610355600480360381019061035091906123aa565b6116c9565b604051610362919061234f565b60405180910390f35b61038560048036038101906103809190611d0d565b6116fc565b6040516103969594939291906123e6565b60405180910390f35b6103b960048036038101906103b49190611d0d565b61186f565b6040516103c99493929190611dfb565b60405180910390f35b6103ec60048036038101906103e79190612447565b611ac7565b005b60096020528060005260406000206000915090508060000154908060010180546104179061251d565b80601f01602080910402602001604051908101604052809291908181526020018280546104439061251d565b80156104905780601f1061046557610100808354040283529160200191610490565b820191906000526020600020905b81548152906001019060200180831161047357829003601f168201915b5050505050908060020180546104a59061251d565b80601f01602080910402602001604051908101604052809291908181526020018280546104d19061251d565b801561051e5780601f106104f35761010080835404028352916020019161051e565b820191906000526020600020905b81548152906001019060200180831161050157829003601f168201915b5050505050908060030160009054906101000a900473ffffffffffffffffffffffffffffffffffffffff16905084565b600360003373ffffffffffffffffffffffffffffffffffffffff1673ffffffffffffffffffffffffffffffffffffffff16815260200190815260200160002060009054906101000a900460ff166105a457600080fd5b3373ffffffffffffffffffffffffffffffffffffffff16600660008373ffffffffffffffffffffffffffffffffffffffff1673ffffffffffffffffffffffffffffffffffffffff16815260200190815260200160002060009054906101000a900473ffffffffffffffffffffffffffffffffffffffff1673ffffffffffffffffffffffffffffffffffffffff161461063b57600080fd5b6000600860008373ffffffffffffffffffffffffffffffffffffffff1673ffffffffffffffffffffffffffffffffffffffff16815260200190815260200160002090508b8b826000019182610691929190612734565b5089898260010160008573ffffffffffffffffffffffffffffffffffffffff1673ffffffffffffffffffffffffffffffffffffffff16815260200190815260200160002091826106e2929190612734565b5087878260020191826106f6929190612734565b5085858260040160008573ffffffffffffffffffffffffffffffffffffffff1673ffffffffffffffffffffffffffffffffffffffff1681526020019081526020016000209182610747929190612734565b50838160030160006101000a81548160ff021916908315150217905550828160050181905550818160060160006101000a81548173ffffffffffffffffffffffffffffffffffffffff021916908373ffffffffffffffffffffffffffffffffffffffff160217905550505050505050505050505050565b6060600760008373ffffffffffffffffffffffffffffffffffffffff1673ffffffffffffffffffffffffffffffffffffffff16815260200190815260200160002080548060200260200160405190810160405280929190818152602001828054801561087f57602002820191906000526020600020905b8160009054906101000a900473ffffffffffffffffffffffffffffffffffffffff1673ffffffffffffffffffffffffffffffffffffffff1681526020019060010190808311610835575b50505050509050919050565b3373ffffffffffffffffffffffffffffffffffffffff16600660008373ffffffffffffffffffffffffffffffffffffffff1673ffffffffffffffffffffffffffffffffffffffff16815260200190815260200160002060009054906101000a900473ffffffffffffffffffffffffffffffffffffffff1673ffffffffffffffffffffffffffffffffffffffff161461092257600080fd5b600960008373ffffffffffffffffffffffffffffffffffffffff1673ffffffffffffffffffffffffffffffffffffffff16815260200190815260200160002060030160009054906101000a900473ffffffffffffffffffffffffffffffffffffffff1673ffffffffffffffffffffffffffffffffffffffff163373ffffffffffffffffffffffffffffffffffffffff16146109bc57600080fd5b82600660008373ffffffffffffffffffffffffffffffffffffffff1673ffffffffffffffffffffffffffffffffffffffff16815260200190815260200160002060006101000a81548173ffffffffffffffffffffffffffffffffffffffff021916908373ffffffffffffffffffffffffffffffffffffffff160217905550505050565b60608060606000806000600860008873ffffffffffffffffffffffffffffffffffffffff1673ffffffffffffffffffffffffffffffffffffffff168152602001908152602001600020600001600860008973ffffffffffffffffffffffffffffffffffffffff1673ffffffffffffffffffffffffffffffffffffffff16815260200190815260200160002060010160008973ffffffffffffffffffffffffffffffffffffffff1673ffffffffffffffffffffffffffffffffffffffff168152602001908152602001600020600860008a73ffffffffffffffffffffffffffffffffffffffff1673ffffffffffffffffffffffffffffffffffffffff168152602001908152602001600020600201600860008b73ffffffffffffffffffffffffffffffffffffffff1673ffffffffffffffffffffffffffffffffffffffff16815260200190815260200160002060030160009054906101000a900460ff16600860008c73ffffffffffffffffffffffffffffffffffffffff1673ffffffffffffffffffffffffffffffffffffffff16815260200190815260200160002060050154600860008d73ffffffffffffffffffffffffffffffffffffffff1673ffffffffffffffffffffffffffffffffffffffff16815260200190815260200160002060060160009054906101000a900473ffffffffffffffffffffffffffffffffffffffff16858054610c4e9061251d565b80601f0160208091040260200160405190810160405280929190818152602001828054610c7a9061251d565b8015610cc75780601f10610c9c57610100808354040283529160200191610cc7565b820191906000526020600020905b815481529060010190602001808311610caa57829003601f168201915b50505050509550848054610cda9061251d565b80601f0160208091040260200160405190810160405280929190818152602001828054610d069061251d565b8015610d535780601f10610d2857610100808354040283529160200191610d53565b820191906000526020600020905b815481529060010190602001808311610d3657829003601f168201915b50505050509450838054610d669061251d565b80601f0160208091040260200160405190810160405280929190818152602001828054610d929061251d565b8015610ddf5780601f10610db457610100808354040283529160200191610ddf565b820191906000526020600020905b815481529060010190602001808311610dc257829003601f168201915b5050505050935095509550955095509550955091939550919395565b600360003373ffffffffffffffffffffffffffffffffffffffff1673ffffffffffffffffffffffffffffffffffffffff16815260200190815260200160002060009054906101000a900460ff16610e5157600080fd5b33600660008373ffffffffffffffffffffffffffffffffffffffff1673ffffffffffffffffffffffffffffffffffffffff16815260200190815260200160002060006101000a81548173ffffffffffffffffffffffffffffffffffffffff021916908373ffffffffffffffffffffffffffffffffffffffff160217905550600760003373ffffffffffffffffffffffffffffffffffffffff1673ffffffffffffffffffffffffffffffffffffffff168152602001908152602001600020819080600181540180825580915050600190039060005260206000200160009091909190916101000a81548173ffffffffffffffffffffffffffffffffffffffff021916908373ffffffffffffffffffffffffffffffffffffffff1602179055506001600560008373ffffffffffffffffffffffffffffffffffffffff1673ffffffffffffffffffffffffffffffffffffffff16815260200190815260200160002060006101000a81548160ff02191690831515021790555060026000815480929190610fda90612833565b919050555050565b60036020528060005260406000206000915054906101000a900460ff1681565b8173ffffffffffffffffffffffffffffffffffffffff16600660008373ffffffffffffffffffffffffffffffffffffffff1673ffffffffffffffffffffffffffffffffffffffff16815260200190815260200160002060009054906101000a900473ffffffffffffffffffffffffffffffffffffffff1673ffffffffffffffffffffffffffffffffffffffff161461109957600080fd5b82600660008373ffffffffffffffffffffffffffffffffffffffff1673ffffffffffffffffffffffffffffffffffffffff16815260200190815260200160002060006101000a81548173ffffffffffffffffffffffffffffffffffffffff021916908373ffffffffffffffffffffffffffffffffffffffff160217905550600760008473ffffffffffffffffffffffffffffffffffffffff1673ffffffffffffffffffffffffffffffffffffffff168152602001908152602001600020819080600181540180825580915050600190039060005260206000200160009091909190916101000a81548173ffffffffffffffffffffffffffffffffffffffff021916908373ffffffffffffffffffffffffffffffffffffffff160217905550505050565b6060600060015467ffffffffffffffff8111156111dc576111db612559565b5b60405190808252806020026020018201604052801561120a5781602001602082028036833780820191505090505b50905060005b6001548110156112ae576004600082815260200190815260200160002060009054906101000a900473ffffffffffffffffffffffffffffffffffffffff168282815181106112615761126061287b565b5b602002602001019073ffffffffffffffffffffffffffffffffffffffff16908173ffffffffffffffffffffffffffffffffffffffff168152505080806112a690612833565b915050611210565b508091505090565b600360003373ffffffffffffffffffffffffffffffffffffffff1673ffffffffffffffffffffffffffffffffffffffff16815260200190815260200160002060009054906101000a900460ff1661130c57600080fd5b600660003373ffffffffffffffffffffffffffffffffffffffff1673ffffffffffffffffffffffffffffffffffffffff16815260200190815260200160002060009054906101000a900473ffffffffffffffffffffffffffffffffffffffff1673ffffffffffffffffffffffffffffffffffffffff168a73ffffffffffffffffffffffffffffffffffffffff16146113a357600080fd5b8888600860008d73ffffffffffffffffffffffffffffffffffffffff1673ffffffffffffffffffffffffffffffffffffffff16815260200190815260200160002060000191826113f4929190612734565b508686600860008d73ffffffffffffffffffffffffffffffffffffffff1673ffffffffffffffffffffffffffffffffffffffff16815260200190815260200160002060010160008d73ffffffffffffffffffffffffffffffffffffffff1673ffffffffffffffffffffffffffffffffffffffff1681526020019081526020016000209182611483929190612734565b508484600860008d73ffffffffffffffffffffffffffffffffffffffff1673ffffffffffffffffffffffffffffffffffffffff16815260200190815260200160002060020191826114d5929190612734565b5082600860008c73ffffffffffffffffffffffffffffffffffffffff1673ffffffffffffffffffffffffffffffffffffffff16815260200190815260200160002060030160006101000a81548160ff02191690831515021790555081600860008c73ffffffffffffffffffffffffffffffffffffffff1673ffffffffffffffffffffffffffffffffffffffff1681526020019081526020016000206005018190555080600860008c73ffffffffffffffffffffffffffffffffffffffff1673ffffffffffffffffffffffffffffffffffffffff16815260200190815260200160002060060160006101000a81548173ffffffffffffffffffffffffffffffffffffffff021916908373ffffffffffffffffffffffffffffffffffffffff16021790555050505050505050505050565b60066020528060005260406000206000915054906101000a900473ffffffffffffffffffffffffffffffffffffffff1681565b60056020528060005260406000206000915054906101000a900460ff1681565b60008054906101000a900473ffffffffffffffffffffffffffffffffffffffff1681565b6007602052816000526040600020818154811061169757600080fd5b906000526020600020016000915091509054906101000a900473ffffffffffffffffffffffffffffffffffffffff1681565b60046020528060005260406000206000915054906101000a900473ffffffffffffffffffffffffffffffffffffffff1681565b600860205280600052604060002060009150905080600001805461171f9061251d565b80601f016020809104026020016040519081016040528092919081815260200182805461174b9061251d565b80156117985780601f1061176d57610100808354040283529160200191611798565b820191906000526020600020905b81548152906001019060200180831161177b57829003601f168201915b5050505050908060020180546117ad9061251d565b80601f01602080910402602001604051908101604052809291908181526020018280546117d99061251d565b80156118265780601f106117fb57610100808354040283529160200191611826565b820191906000526020600020905b81548152906001019060200180831161180957829003601f168201915b5050505050908060030160009054906101000a900460ff16908060050154908060060160009054906101000a900473ffffffffffffffffffffffffffffffffffffffff16905085565b60006060806000600960008673ffffffffffffffffffffffffffffffffffffffff1673ffffffffffffffffffffffffffffffffffffffff16815260200190815260200160002060000154600960008773ffffffffffffffffffffffffffffffffffffffff1673ffffffffffffffffffffffffffffffffffffffff168152602001908152602001600020600101600960008873ffffffffffffffffffffffffffffffffffffffff1673ffffffffffffffffffffffffffffffffffffffff168152602001908152602001600020600201600960008973ffffffffffffffffffffffffffffffffffffffff1673ffffffffffffffffffffffffffffffffffffffff16815260200190815260200160002060030160009054906101000a900473ffffffffffffffffffffffffffffffffffffffff168280546119ac9061251d565b80601f01602080910402602001604051908101604052809291908181526020018280546119d89061251d565b8015611a255780601f106119fa57610100808354040283529160200191611a25565b820191906000526020600020905b815481529060010190602001808311611a0857829003601f168201915b50505050509250818054611a389061251d565b80601f0160208091040260200160405190810160405280929190818152602001828054611a649061251d565b8015611ab15780601f10611a8657610100808354040283529160200191611ab1565b820191906000526020600020905b815481529060010190602001808311611a9457829003601f168201915b5050505050915093509350935093509193509193565b60008054906101000a900473ffffffffffffffffffffffffffffffffffffffff1673ffffffffffffffffffffffffffffffffffffffff163373ffffffffffffffffffffffffffffffffffffffff1614611b1f57600080fd5b6000600960008873ffffffffffffffffffffffffffffffffffffffff1673ffffffffffffffffffffffffffffffffffffffff16815260200190815260200160002090506001600360008973ffffffffffffffffffffffffffffffffffffffff1673ffffffffffffffffffffffffffffffffffffffff16815260200190815260200160002060006101000a81548160ff0219169083151502179055508660046000600154815260200190815260200160002060006101000a81548173ffffffffffffffffffffffffffffffffffffffff021916908373ffffffffffffffffffffffffffffffffffffffff16021790555060016000815480929190611c2190612833565b919050555060015481600001819055508484826001019182611c44929190612734565b508282826002019182611c58929190612734565b50858160030160006101000a81548173ffffffffffffffffffffffffffffffffffffffff021916908373ffffffffffffffffffffffffffffffffffffffff16021790555050505050505050565b600080fd5b600080fd5b600073ffffffffffffffffffffffffffffffffffffffff82169050919050565b6000611cda82611caf565b9050919050565b611cea81611ccf565b8114611cf557600080fd5b50565b600081359050611d0781611ce1565b92915050565b600060208284031215611d2357611d22611ca5565b5b6000611d3184828501611cf8565b91505092915050565b6000819050919050565b611d4d81611d3a565b82525050565b600081519050919050565b600082825260208201905092915050565b60005b83811015611d8d578082015181840152602081019050611d72565b83811115611d9c576000848401525b50505050565b6000601f19601f8301169050919050565b6000611dbe82611d53565b611dc88185611d5e565b9350611dd8818560208601611d6f565b611de181611da2565b840191505092915050565b611df581611ccf565b82525050565b6000608082019050611e106000830187611d44565b8181036020830152611e228186611db3565b90508181036040830152611e368185611db3565b9050611e456060830184611dec565b95945050505050565b600080fd5b600080fd5b600080fd5b60008083601f840112611e7357611e72611e4e565b5b8235905067ffffffffffffffff811115611e9057611e8f611e53565b5b602083019150836001820283011115611eac57611eab611e58565b5b9250929050565b60008115159050919050565b611ec881611eb3565b8114611ed357600080fd5b50565b600081359050611ee581611ebf565b92915050565b611ef481611d3a565b8114611eff57600080fd5b50565b600081359050611f1181611eeb565b92915050565b6000611f2282611caf565b9050919050565b611f3281611f17565b8114611f3d57600080fd5b50565b600081359050611f4f81611f29565b92915050565b600080600080600080600080600080600060e08c8e031215611f7a57611f79611ca5565b5b60008c013567ffffffffffffffff811115611f9857611f97611caa565b5b611fa48e828f01611e5d565b9b509b505060208c013567ffffffffffffffff811115611fc757611fc6611caa565b5b611fd38e828f01611e5d565b995099505060408c013567ffffffffffffffff811115611ff657611ff5611caa565b5b6120028e828f01611e5d565b975097505060608c013567ffffffffffffffff81111561202557612024611caa565b5b6120318e828f01611e5d565b955095505060806120448e828f01611ed6565b93505060a06120558e828f01611f02565b92505060c06120668e828f01611f40565b9150509295989b509295989b9093969950565b600081519050919050565b600082825260208201905092915050565b6000819050602082019050919050565b6120ae81611ccf565b82525050565b60006120c083836120a5565b60208301905092915050565b6000602082019050919050565b60006120e482612079565b6120ee8185612084565b93506120f983612095565b8060005b8381101561212a57815161211188826120b4565b975061211c836120cc565b9250506001810190506120fd565b5085935050505092915050565b6000602082019050818103600083015261215181846120d9565b905092915050565b60008060006060848603121561217257612171611ca5565b5b600061218086828701611cf8565b935050602061219186828701611cf8565b92505060406121a286828701611f40565b9150509250925092565b6121b581611eb3565b82525050565b600060c08201905081810360008301526121d58189611db3565b905081810360208301526121e98188611db3565b905081810360408301526121fd8187611db3565b905061220c60608301866121ac565b6122196080830185611d44565b61222660a0830184611dec565b979650505050505050565b600060208201905061224660008301846121ac565b92915050565b60008060008060008060008060008060e08b8d03121561226f5761226e611ca5565b5b600061227d8d828e01611cf8565b9a505060208b013567ffffffffffffffff81111561229e5761229d611caa565b5b6122aa8d828e01611e5d565b995099505060408b013567ffffffffffffffff8111156122cd576122cc611caa565b5b6122d98d828e01611e5d565b975097505060608b013567ffffffffffffffff8111156122fc576122fb611caa565b5b6123088d828e01611e5d565b9550955050608061231b8d828e01611ed6565b93505060a061232c8d828e01611f02565b92505060c061233d8d828e01611f40565b9150509295989b9194979a5092959850565b60006020820190506123646000830184611dec565b92915050565b6000806040838503121561238157612380611ca5565b5b600061238f85828601611cf8565b92505060206123a085828601611f02565b9150509250929050565b6000602082840312156123c0576123bf611ca5565b5b60006123ce84828501611f02565b91505092915050565b6123e081611f17565b82525050565b600060a08201905081810360008301526124008188611db3565b905081810360208301526124148187611db3565b905061242360408301866121ac565b6124306060830185611d44565b61243d60808301846123d7565b9695505050505050565b6000806000806000806080878903121561246457612463611ca5565b5b600061247289828a01611cf8565b965050602061248389828a01611cf8565b955050604087013567ffffffffffffffff8111156124a4576124a3611caa565b5b6124b089828a01611e5d565b9450945050606087013567ffffffffffffffff8111156124d3576124d2611caa565b5b6124df89828a01611e5d565b92509250509295509295509295565b7f4e487b7100000000000000000000000000000000000000000000000000000000600052602260045260246000fd5b6000600282049050600182168061253557607f821691505b602082108103612548576125476124ee565b5b50919050565b600082905092915050565b7f4e487b7100000000000000000000000000000000000000000000000000000000600052604160045260246000fd5b60008190508160005260206000209050919050565b60006020601f8301049050919050565b600082821b905092915050565b6000600883026125ea7fffffffffffffffffffffffffffffffffffffffffffffffffffffffffffffffff826125ad565b6125f486836125ad565b95508019841693508086168417925050509392505050565b6000819050919050565b600061263161262c61262784611d3a565b61260c565b611d3a565b9050919050565b6000819050919050565b61264b83612616565b61265f61265782612638565b8484546125ba565b825550505050565b600090565b612674612667565b61267f818484612642565b505050565b5b818110156126a35761269860008261266c565b600181019050612685565b5050565b601f8211156126e8576126b981612588565b6126c28461259d565b810160208510156126d1578190505b6126e56126dd8561259d565b830182612684565b50505b505050565b600082821c905092915050565b600061270b600019846008026126ed565b1980831691505092915050565b600061272483836126fa565b9150826002028217905092915050565b61273e838361254e565b67ffffffffffffffff81111561275757612756612559565b5b612761825461251d565b61276c8282856126a7565b6000601f83116001811461279b5760008415612789578287013590505b6127938582612718565b8655506127fb565b601f1984166127a986612588565b60005b828110156127d1578489013582556001820191506020850194506020810190506127ac565b868310156127ee57848901356127ea601f8916826126fa565b8355505b6001600288020188555050505b50505050505050565b7f4e487b7100000000000000000000000000000000000000000000000000000000600052601160045260246000fd5b600061283e82611d3a565b91507fffffffffffffffffffffffffffffffffffffffffffffffffffffffffffffffff82036128705761286f612804565b5b600182019050919050565b7f4e487b7100000000000000000000000000000000000000000000000000000000600052603260045260246000fdfea2646970667358221220ef2bcc9d1ea2a478853c661ab595a98b2e0c78c176dde4720d153a2dddd32e7a64736f6c634300080f0033",
  "immutableReferences": {},
  "source": "// SPDX-License-Identifier: GPL-3.0\r\n\r\npragma solidity >=0.7.0 <0.9.0;\r\n\r\ncontract EMR {\r\n\r\n    struct EHR {\r\n        string patient_name;\r\n        mapping(address=>string) past_surgeries;\r\n        string blood_grp;\r\n        bool diabetic;\r\n        mapping(address=>string) allergies;\r\n        uint age;\r\n        address payable patient_address;\r\n    }\r\n\r\n    struct HospitalData {\r\n        uint key;\r\n        string name;\r\n        string addr;\r\n        address manager;\r\n    }\r\n\r\n    address public Owner;\r\n    uint HospitalCount=0;\r\n    uint PatientCount=0;\r\n    mapping(address => bool) public Hospitals;\r\n    mapping(uint => address) public HospitalsAddr;\r\n    mapping(address => bool) public Patients; \r\n    mapping(address => address) public Hospital_patients; //many to one\r\n    mapping(address => address[]) public PatientsAddr;\r\n    mapping(address => EHR) public Patients_EHR;\r\n    mapping(address => HospitalData) public Hospital_Data;\r\n\r\n    constructor() {\r\n        Owner = 0xb9E948DE64BB6FE423ed878A1F33260f0e0C21F9;\r\n    }\r\n\r\n   modifier restrictedToHospital() {\r\n        require(Hospitals[msg.sender]);\r\n        _;\r\n    }\r\n\r\n    modifier restrictedTopatients() {\r\n        require(Patients[msg.sender]);\r\n        _;\r\n    }\r\n\r\n    function Add_Hospitals(address Hospital,address manager,  string calldata name,string calldata addr) public  {\r\n        require(msg.sender==Owner);\r\n        HospitalData storage newHospitalData = Hospital_Data[Hospital];\r\n        Hospitals[Hospital]=true;\r\n        HospitalsAddr[HospitalCount]=Hospital;\r\n        HospitalCount ++;\r\n        newHospitalData.key=HospitalCount;\r\n        newHospitalData.name=name;\r\n        newHospitalData.addr=addr;\r\n        newHospitalData.manager=manager;\r\n    }\r\n\r\n     function getHospitalsAddress() public view returns(address[] memory)\r\n    {\r\n      address[] memory ret = new address[](HospitalCount);\r\n    for (uint i = 0; i < HospitalCount; i++) {\r\n        ret[i]=HospitalsAddr[i];\r\n    }\r\n    return ret;\r\n    }\r\n\r\n    function getHospitalData(address Hospital) public view  returns (uint,string memory,string memory,address) \r\n    {\r\n        return(\r\n    Hospital_Data[Hospital].key,\r\n    Hospital_Data[Hospital].name,\r\n    Hospital_Data[Hospital].addr,\r\n    Hospital_Data[Hospital].manager);\r\n\r\n    }\r\n\r\n    function Add_Patient(address patient) restrictedToHospital public  {\r\n    \r\n        Hospital_patients [patient] = msg.sender;\r\n        PatientsAddr[msg.sender].push(patient);\r\n        Patients[patient]=true;\r\n        PatientCount ++;\r\n    }\r\n\r\n    function getPatientsAddress(address Hospital) public view returns(address[] memory)\r\n    {\r\n    return PatientsAddr[Hospital];\r\n    }\r\n\r\n    function Add_Patient_EHR(string calldata patient_name,string calldata past_surgeries, string calldata blood_grp, string calldata allergies,bool diabetic,uint age,address payable patient_address) restrictedToHospital public {\r\n    require(Hospital_patients [patient_address] == msg.sender);\r\n    EHR storage newEHR = Patients_EHR[patient_address];\r\n    newEHR.patient_name=patient_name;\r\n    newEHR.past_surgeries[patient_address]=past_surgeries;\r\n    newEHR.blood_grp=blood_grp;\r\n    newEHR.allergies[patient_address]=allergies;\r\n    newEHR.diabetic=diabetic;\r\n    newEHR.age=age;\r\n    newEHR.patient_address=patient_address;\r\n\r\n    }\r\n\r\n    function updateEHR(address patient,string calldata patient_name,string calldata past_surgeries, string calldata blood_grp, bool diabetic,uint age,address payable patient_address) public restrictedToHospital{\r\n    require(patient==Hospital_patients[msg.sender]);\r\n    Patients_EHR[patient].patient_name=patient_name;\r\n    Patients_EHR[patient].past_surgeries[patient]=past_surgeries;\r\n    Patients_EHR[patient].blood_grp=blood_grp;\r\n    Patients_EHR[patient].diabetic=diabetic;\r\n    Patients_EHR[patient].age=age;\r\n    Patients_EHR[patient].patient_address=patient_address;\r\n    }\r\n\r\n    function getEHRsummary(address patient) public view  returns (string memory,string memory,string memory, bool, uint,address) \r\n    {\r\n        return(\r\n    Patients_EHR[patient].patient_name,\r\n    Patients_EHR[patient].past_surgeries[patient],\r\n    Patients_EHR[patient].blood_grp,\r\n    Patients_EHR[patient].diabetic,\r\n    Patients_EHR[patient].age,\r\n    Patients_EHR[patient].patient_address);\r\n    }\r\n\r\n    function Emergency_EHR_Transfer(address To,address From,address payable patient_address) public {\r\n    require(Hospital_patients [patient_address] == msg.sender);\r\n    require(msg.sender==Hospital_Data[From].manager);\r\n    Hospital_patients[patient_address]=To;\r\n    }\r\n\r\n    function EHR_Transfer(address To,address From,address payable patient_address) public {\r\n    require(Hospital_patients [patient_address] == From);\r\n     Hospital_patients [patient_address] = To;\r\n        PatientsAddr[To].push(patient_address);\r\n    \r\n    }\r\n\r\n}",
  "sourcePath": "C:\\Users\\aayush\\emr\\contracts\\emr.sol",
  "compiler": {
    "name": "solc",
    "version": "0.8.15+commit.e14f2714.Emscripten.clang"
  },
  "schemaVersion": "3.4.7",
  "updatedAt": "2022-10-02T02:11:44.029Z",
  "networkType": "ethereum",
  "devdoc": {
    "kind": "dev",
    "methods": {},
    "version": 1
  },
  "userdoc": {
    "kind": "user",
    "methods": {},
    "version": 1
  }
}